:020000040800F2
:1000000000280020E90D00088D0D0008930D000860
:10001000990D00089F0D0008A50D000800000000C4
:10002000000000000000000000000000AB0D000810
:10003000B70D000800000000C30D0008CF0D000838
:10004000310E0008310E0008310E0008310E000894
:10005000310E0008310E0008310E0008310E000884
:10006000310E0008310E0008310E0008310E000874
:10007000310E0008310E0008310E0008310E000864
:10008000310E0008310E0008310E0008310E000854
:10009000310E0008310E0008310E0008310E000844
:1000A000310E0008310E0008310E0008310E000834
:1000B000310E0008310E000800000000310E00086B
:1000C000310E00080000000000000000310E0008A2
:1000D00000000000310E0008310E00080000000092
:1000E000310E0008310E0008310E0008000000003B
:1000F0000000000000000000000000000000000000
:0C01000000000000000000005FF808F1A3
:10010C0010B5054C237833B9044B13B10448AFF345
:10011C0000800123237010BD180000200000000097
:10012C003C1C000808B5034B1BB103490348AFF353
:10013C00008008BD000000001C0000203C1C0008D2
:10014C0080B582B000AF78607B68092B00F2C98162
:10015C0001A252F823F000BF8D010008E301000852
:10016C00390200088F020008E50200083B03000872
:10017C0091030008E70300083D04000899040008F7
:10018C0000224FF48071C04801F032F900224FF484
:10019C000071BD4801F02CF900224FF48061BA487F
:1001AC0001F026F900224FF40061B74801F020F964
:1001BC0000224FF48051B44801F01AF900224FF498
:1001CC000051B14801F014F901224FF48041AE48BE
:1001DC0001F00EF985E101224FF48071AA4801F07B
:1001EC0007F900224FF40071A74801F001F9002231
:1001FC004FF48061A44801F0FBF801224FF4006138
:10020C00A14801F0F5F801224FF480519E4801F00D
:10021C00EFF801224FF400519B4801F0E9F801225C
:10022C004FF48041984801F0E3F85AE100224FF472
:10023C008071954801F0DCF800224FF4007192486F
:10024C0001F0D6F801224FF480618F4801F0D0F80C
:10025C0000224FF400618C4801F0CAF800224FF4E0
:10026C008051894801F0C4F801224FF400518648AE
:10027C0001F0BEF800224FF48041834801F0B8F839
:10028C002FE100224FF480717F4801F0B1F8002279
:10029C004FF400717C4801F0ABF800224FF4806100
:1002AC00794801F0A5F800224FF40061764801F07E
:1002BC009FF801224FF48051734801F099F8012204
:1002CC004FF40051704801F093F800224FF4804134
:1002DC006D4801F08DF804E101224FF480716A48F9
:1002EC0001F086F800224FF40071674801F080F8A5
:1002FC0000224FF48061644801F07AF801224FF437
:10030C000061614801F074F801224FF480515E489D
:10031C0001F06EF800224FF400515B4801F068F8D0
:10032C0000224FF48041584801F062F8D9E00022D5
:10033C004FF48071544801F05BF801224FF40071C6
:10034C00514801F055F800224FF480614E4801F0FD
:10035C004FF800224FF400614B4801F049F801229C
:10036C004FF48051484801F043F800224FF40051FB
:10037C00454801F03DF800224FF48041424801F01D
:10038C0037F8AEE000224FF480713F4801F030F8AE
:10039C0001224FF400713C4801F02AF800224FF47E
:1003AC008061394801F024F800224FF4006136488E
:1003BC0001F01EF800224FF48051334801F018F878
:1003CC0000224FF40051304801F012F800224FF493
:1003DC0080412D4801F00CF883E000224FF480712D
:1003EC00294801F005F800224FF40071264800F06E
:1003FC00FFFF00224FF48061234800F0F9FF012237
:10040C004FF40061204800F0F3FF01224FF48051BB
:10041C001D4800F0EDFF01224FF400511A4800F086
:10042C00E7FF01224FF48041174800F0E1FF58E04C
:10043C0000224FF48071144800F0DAFF00224FF4D0
:10044C000071114800F0D4FF00224FF480610E4877
:10045C0000F0CEFF00224FF400610B4800F0C8FF03
:10046C0000224FF48051084800F0C2FF00224FF4E4
:10047C000051054800F0BCFF00224FF480410248B7
:10048C0000F0B6FF2DE000BF0008014000224FF441
:10049C008071164800F0ACFF00224FF40071134835
:1004AC0000F0A6FF00224FF48061104800F0A0FF7E
:1004BC0000224FF400610D4800F09AFF01224FF426
:1004CC0080510A4800F094FF00224FF40051074875
:1004DC0000F08EFF00224FF48041044800F088FFAA
:1004EC0000BF00BF0837BD4680BD00BF00080140FB
:1004FC0080B582B000AF78607B68092B00F29E81DA
:10050C0001A252F823F000BF3D0500088B0500083E
:10051C00D90500082706000875060008C306000860
:10052C00110700085F070008AD070008FB0700086B
:10053C0000220221C34800F05BFF00220421C148C5
:10054C0000F056FF00220821BE4800F051FF0022A7
:10055C001021BC4800F04CFF00224FF48051BA48E7
:10056C0000F046FF00224FF40051B74800F040FF66
:10057C0001224FF48041B44800F03AFF5EE10122C1
:10058C000221B04800F034FF00220421AD4800F0F5
:10059C002FFF00220821AB4800F02AFF0122102176
:1005AC00A84800F025FF01224FF48051A64800F026
:1005BC001FFF01224FF40051A34800F019FF012244
:1005CC004FF48041A04800F013FF37E100220221D4
:1005DC009C4800F00DFF002204219A4800F008FF0F
:1005EC0001220821974800F003FF002210219548B2
:1005FC0000F0FEFE00224FF48051934800F0F8FE0C
:10060C0001224FF40051904800F0F2FE00224FF40A
:10061C0080418D4800F0ECFE10E100220221894857
:10062C0000F0E6FE00220421864800F0E1FE0022E4
:10063C000821844800F0DCFE00221021814800F0E3
:10064C00D7FE01224FF480517F4800F0D1FE0122E9
:10065C004FF400517C4800F0CBFE00224FF4804157
:10066C00794800F0C5FEE9E001220221754800F04E
:10067C00BFFE00220421734800F0BAFE00220821BC
:10068C00704800F0B5FE012210216E4800F0B0FE5B
:10069C0001224FF480516C4800F0AAFE00224FF466
:1006AC000051694800F0A4FE00224FF480416648D6
:1006BC0000F09EFEC2E000220221624800F098FE8B
:1006CC00012204215F4800F093FE002208215D48BE
:1006DC0000F08EFE002210215A4800F089FE012203
:1006EC004FF48051584800F083FE00224FF4005123
:1006FC00554800F07DFE00224FF48041524800F036
:10070C0077FE9BE0002202214E4800F071FE012290
:10071C0004214C4800F06CFE00220821494800F0EE
:10072C0067FE00221021474800F062FE00224FF4C1
:10073C008051454800F05CFE00224FF400514248C5
:10074C0000F056FE00224FF480413F4800F050FE6E
:10075C0074E0002202213B4800F04AFE00220421F2
:10076C00384800F045FE00220821364800F040FED3
:10077C0001221021334800F03BFE01224FF480513E
:10078C00314800F035FE01224FF400512E4800F0A4
:10079C002FFE01224FF480412B4800F029FE4DE042
:1007AC0000220221274800F023FE002204212548C4
:1007BC0000F01EFE00220821224800F019FE002243
:1007CC001021204800F014FE00224FF480511E48E6
:1007DC0000F00EFE00224FF400511B4800F008FE02
:1007EC0000224FF48041184800F002FE26E000225F
:1007FC000221144800F0FCFD00220421114800F0F5
:10080C00F7FD002208210F4800F0F2FD0022102114
:10081C000C4800F0EDFD01224FF480510A4800F025
:10082C00E7FD00224FF40051074800F0E1FD0022E3
:10083C004FF48041044800F0DBFD00BF00BF0837D7
:10084C00BD4680BD00080140000C014080B500AFE2
:10085C0000224FF48071344800F0CAFD00224FF49E
:10086C000071314800F0C4FD00224FF480612E4825
:10087C0000F0BEFD00224FF400612B4800F0B8FDE3
:10088C0000224FF48051284800F0B2FD00224FF4B2
:10089C000051254800F0ACFD00224FF48041224865
:1008AC0000F0A6FD00220121204800F0A1FD00224D
:1008BC0002211E4800F09CFD002204211B4800F080
:1008CC0097FD00220821194800F092FD002210210A
:1008DC00164800F08DFD00222021144800F088FD00
:1008EC0000224021114800F083FD002280210F4896
:1008FC0000F07EFD00224FF480710C4800F078FD72
:10090C0000224FF40071094800F072FD00224FF4F0
:10091C008061064800F06CFD00224FF40061034832
:10092C0000F066FD00BF80BD00080140000C0140D6
:10093C0080B500AF9F4B1B78002B03D0012B00F030
:10094C009A8035E19C4B1B685A1E9B490A601846DD
:10095C00FFF7F6FB994B1B685A1E98490A6018461C
:10096C00FFF7C6FD944B1B68002BC0F21E810122C1
:10097C000221934800F03CFD01228021904800F0B8
:10098C0037FD00224FF480618D4800F031FD0022CC
:10099C0010218B4800F02CFD00224FF48071884808
:1009AC0000F026FD00220421854800F021FD854B36
:1009BC001B78022B06D0022B51DC002B4AD0012BCA
:1009CC0024D04CE07D4B1B68002B45DB0122012120
:1009DC007B4800F00DFD01224021794800F008FD14
:1009EC0000224FF40061764800F002FD0022202125
:1009FC00734800F0FDFC714B1B68002B2CD16F4B26
:100A0C0002221A606F4B01221A7025E06B4B1B6897
:100A1C00002B23DB01224FF40061694800F0E8FC55
:100A2C0001222021664800F0E3FC002201216448E9
:100A3C0000F0DEFC00224021614800F0D9FC5F4B45
:100A4C001B68002B0AD15D4B05221A605D4B0222FC
:100A5C001A7003E000BF02E000BF00E000BF564B7D
:100A6C001B68002B40F0A180534B03221A60514BA2
:100A7C0001221A7099E0504B1B685A1E4E490A60AD
:100A8C001846FFF75DFB4D4B1B685A1E4B490A601D
:100A9C001846FFF72DFD494B1B68002BC0F28780D1
:100AAC0000220221464800F0A3FC00228021444889
:100ABC0000F09EFC00224FF40061414800F098FCCD
:100ACC00002220213E4800F093FC01224FF480616B
:100ADC003B4800F08DFC01221021394800F088FCC5
:100AEC00394B1B78022B06D0022B53DC002B4CD03D
:100AFC00012B25D04EE0304B1B68002B47DB01222D
:100B0C004FF400712E4800F073FC012208212C4890
:100B1C0000F06EFC00224FF48071294800F068FC54
:100B2C0000220421264800F063FC234B1B68002B99
:100B3C002DD1214B02221A60234B01221A7026E080
:100B4C001D4B1B68002B24DB01224FF480711C48C9
:100B5C0000F04EFC01220421194800F049FC00224F
:100B6C004FF40071164800F043FC00220821144891
:100B7C0000F03EFC104B1B68002B0AD10E4B0522DB
:100B8C001A60114B02221A7003E000BF02E000BF92
:100B9C0000E000BF094B1B68002B08D1074B032258
:100BAC001A60044B00221A7001E000BF00E000BF85
:100BBC0000BF80BD3400002004000020080000208D
:100BCC00000C0140010000200000002080B500AFA7
:100BDC0000F02AF900F00BF800F044F8FFF736FEAD
:100BEC00FFF7A6FE4FF47A7000F080F9F8E780B5B5
:100BFC0090B000AF07F1180328220021184601F02D
:100C0C000FF83B1D00221A605A609A60DA601A6174
:100C1C000223BB610123BB621023FB6200237B63B5
:100C2C0007F11803184600F0FBFB0346002B01D01C
:100C3C0000F06EF80F237B600023BB600023FB6089
:100C4C0000233B6100237B613B1D0021184600F013
:100C5C0067FE0346002B01D000F05AF800BF403766
:100C6C00BD4680BD80B586B000AF07F108030022F9
:100C7C001A605A609A60DA60224B9B69214A43F0F1
:100C8C00040393611F4B9B6903F004037B607B6837
:100C9C001C4B9B691B4A43F008039361194B9B69DE
:100CAC0003F008033B603B68002247F61E711648B0
:100CBC0000F09EFB002247F6FF71144800F098FBF1
:100CCC0047F61E73BB600123FB6000233B610223CC
:100CDC007B6107F1080319460B4800F00FFA47F641
:100CEC00FF73BB600123FB6000233B6102237B612C
:100CFC0007F108031946054800F000FA00BF183741
:100D0C00BD4680BD0010024000080140000C0140AF
:100D1C0080B400AF72B600BFFEE7000080B485B0AF
:100D2C0000AF154B9B69144A43F001039361124BBE
:100D3C009B6903F00103BB60BB680F4BDB690E4A78
:100D4C0043F08053D3610C4BDB6903F080537B6021
:100D5C007B680A4B5B68FB60FB6823F0E063FB601D
:100D6C00FB6843F08063FB60044AFB68536000BF80
:100D7C001437BD4680BC7047001002400000014093
:100D8C0080B400AFFEE780B400AFFEE780B400AFE4
:100D9C00FEE780B400AFFEE780B400AFFEE780B49E
:100DAC0000AF00BFBD4680BC704780B400AF00BF31
:100DBC00BD4680BC704780B400AF00BFBD4680BC50
:100DCC00704780B500AF00F075F800BF80BD80B4EF
:100DDC0000AF00BFBD4680BC70470000FFF7F7FFB7
:100DEC000B480C490C4A002302E0D458C45004337D
:100DFC00C4188C42F9D3094A094C002301E0136052
:100E0C000432A242FBD300F0E7FEFFF7DFFE70478F
:100E1C000000002018000020801C00081800002092
:100E2C003C000020FEE7000080B500AF084B1B68BB
:100E3C00074A43F010031360032000F02BF90F2036
:100E4C0000F008F8FFF76AFF0023184680BD00BFCA
:100E5C000020024080B582B000AF7860124B1A6857
:100E6C00124B1B7819464FF47A73B3FBF1F3B2FBB8
:100E7C00F3F3184600F035F90346002B01D001239B
:100E8C000EE07B680F2B0AD8002279684FF0FF30F8
:100E9C0000F00BF9064A7B681360002300E0012385
:100EAC0018460837BD4680BD0C00002014000020F9
:100EBC001000002080B400AF054B1B781A46054B80
:100ECC001B681344034A136000BFBD4680BC7047C7
:100EDC00140000203800002080B400AF024B1B68C7
:100EEC001846BD4680BC70473800002080B584B0E1
:100EFC0000AF7860FFF7F0FFB8607B68FB60FB68C1
:100F0C00B3F1FF3F05D00A4B1B781A46FB6813441C
:100F1C00FB6000BFFFF7E0FF0246BB68D31AFA681C
:100F2C009A42F7D800BF00BF1037BD4680BD00BF46
:100F3C001400002080B485B000AF78607B6803F0AB
:100F4C000703FB600C4BDB68BB60BA684FF6FF0312
:100F5C001340BB60FB681A02BB68134343F0BF63CA
:100F6C0043F40033BB60044ABB68D36000BF143742
:100F7C00BD4680BC704700BF00ED00E080B400AF00
:100F8C00044BDB681B0A03F007031846BD4680BC04
:100F9C00704700BF00ED00E080B483B000AF0346A3
:100FAC003960FB7197F90730002B0ADB3B68DAB22A
:100FBC000C4997F907301201D2B20B4483F8002385
:100FCC000AE03B68DAB20849FB7903F00F03043BF3
:100FDC001201D2B20B441A7600BF0C37BD4680BC4E
:100FEC00704700BF00E100E000ED00E080B489B084
:100FFC0000AFF860B9607A60FB6803F00703FB612F
:10100C00FB69C3F10703042B28BF0423BB61FB69F5
:10101C000433062B02D9FB69033B00E000237B6100
:10102C004FF0FF32BB6902FA03F3DA43BB681A4094
:10103C007B699A404FF0FF317B6901FA03F3D94386
:10104C007B680B40134318462437BD4680BC704761
:10105C0080B582B000AF78607B68013BB3F1807FD4
:10106C0001D301230FE00A4A7B68013B53600F2137
:10107C004FF0FF30FFF790FF054B00229A60044BB6
:10108C0007221A60002318460837BD4680BD00BFF2
:10109C0010E000E080B582B000AF78607868FFF7B0
:1010AC0049FF00BF0837BD4680BD80B586B000AF94
:1010BC000346B9607A60FB7300237B61FFF75EFF28
:1010CC0078617A68B9687869FFF790FF024697F9FA
:1010DC000F3011461846FFF75FFF00BF1837BD46AB
:1010EC0080BD80B582B000AF78607868FFF7B0FF44
:1010FC00034618460837BD4680BD000080B48BB04F
:10110C0000AF7860396000237B6200233B6248E1CA
:10111C0001227B6A02FA03F3FB613B681B68FA69E4
:10112C001340BB61BA69FB699A4240F037813B6856
:10113C005B68A34A93425ED0A14A934275D8A14AF8
:10114C00934258D09F4A93426FD89F4A934252D0B1
:10115C009D4A934269D89D4A93424CD09B4A9342F4
:10116C0063D89B4A934246D0994A93425DD8122B3E
:10117C002AD8122B59D801A252F823F003120008D6
:10118C00DD110008EF1100083112000837120008B9
:10119C0037120008371200083712000837120008FF
:1011AC0037120008371200083712000837120008EF
:1011BC0037120008371200083712000837120008DF
:1011CC00E5110008F9110008824A934213D02CE073
:1011DC003B68DB683B6229E03B68DB6804333B62BD
:1011EC0024E03B68DB6808333B621FE03B68DB684C
:1011FC000C333B621AE03B689B68002B02D1042342
:10120C003B6213E03B689B68012B05D108233B62D2
:10121C007B68FA691A6109E008233B627B68FA690A
:10122C005A6103E000233B6200E000BFBB69FF2B67
:10123C0001D87B6801E07B6804337B61BB69FF2BC1
:10124C0002D87B6A9B0002E07B6A083B9B003B61F7
:10125C007B691A680F213B6901FA03F3DB431A40DF
:10126C00396A3B6901FA03F31A437B691A603B68DC
:10127C005B6803F08053002B00F09080564B9B6909
:10128C00554A43F001039361534B9B6903F00103EF
:10129C00BB60BB68514A7B6A9B08023352F823300F
:1012AC00FB607B6A03F003039B000F2202FA03F33B
:1012BC00DB43FA681340FB607B68494A93420DD0CC
:1012CC007B68484A934207D07B68474A934201D1D6
:1012DC00022304E0032302E0012300E000237A6AE6
:1012EC0002F0030292009340FA681343FB603B49FF
:1012FC007B6A9B080233FA6841F823203B685B68E1
:10130C0003F48013002B06D0384B9A683749BB691D
:10131C0013438B6006E0354B9A68BB69DB4333495A
:10132C0013408B603B685B6803F40013002B06D002
:10133C002E4BDA682D49BB691343CB6006E02B4B6F
:10134C00DA68BB69DB4329491340CB603B685B68B7
:10135C0003F40033002B06D0244B5A682349BB6995
:10136C0013434B6006E0214B5A68BB69DB431F49B2
:10137C0013404B603B685B6803F48033002B06D052
:10138C001A4B1A681949BB6913430B6006E0174BDB
:10139C001A68BB69DB43154913400B607B6A013348
:1013AC007B623B681A687B6A22FA03F3002B7FF49A
:1013BC00AFAE00BF00BF2C37BD4680BC704700BF2E
:1013CC00000032100000311000002210000021102B
:1013DC00000012100000111000100240000001402B
:1013EC0000080140000C01400010014000040140C5
:1013FC0080B483B000AF78600B467B8013467B7063
:10140C007B78002B03D07A887B681A6103E07B8899
:10141C001A047B681A6100BF0C37BD4680BC70474C
:10142C0080B586B000AF78607B68002B01D10123BA
:10143C006CE27B681B6803F00103002B00F08780D3
:10144C00924B5B6803F00C03042B0CD08F4B5B6846
:10145C0003F00C03082B12D18C4B5B6803F4803324
:10146C00B3F5803F0BD1894B1B6803F40033002B81
:10147C006CD07B685B68002B68D1012346E27B68EB
:10148C005B68B3F5803F06D1804B1B687F4A43F401
:10149C00803313602EE07B685B68002B0CD17B4B98
:1014AC001B687A4A23F480331360784B1B68774AA5
:1014BC0023F4802313601DE07B685B68B3F5A02FD9
:1014CC000CD1724B1B68714A43F4802313606F4B31
:1014DC001B686E4A43F4803313600BE06B4B1B6844
:1014EC006A4A23F480331360684B1B68674A23F401
:1014FC00802313607B685B68002B13D0FFF7ECFC38
:10150C00386108E0FFF7E8FC02463B69D31A642B0C
:10151C0001D90323FAE15D4B1B6803F40033002B64
:10152C00F0D014E0FFF7D8FC386108E0FFF7D4FCEA
:10153C0002463B69D31A642B01D90323E6E1534BD2
:10154C001B6803F40033002BF0D100E000BF7B6874
:10155C001B6803F00203002B63D04C4B5B6803F059
:10156C000C03002B0BD0494B5B6803F00C03082BCE
:10157C001CD1464B5B6803F48033002B16D1434BD4
:10158C001B6803F00203002B05D07B681B69012B41
:10159C0001D00123BAE13D4B1B6823F0F8027B68B4
:1015AC005B69DB00394913430B603AE07B681B69CC
:1015BC00002B20D0364B01221A60FFF78DFC3861CE
:1015CC0008E0FFF789FC02463B69D31A022B01D9CC
:1015DC0003239BE12D4B1B6803F00203002BF0D07F
:1015EC002A4B1B6823F0F8027B685B69DB002749F8
:1015FC0013430B6015E0264B00221A60FFF76CFCBE
:10160C00386108E0FFF768FC02463B69D31A022BED
:10161C0001D903237AE11D4B1B6803F00203002B55
:10162C00F0D17B681B6803F00803002B3AD07B6871
:10163C009B69002B19D0174B01221A60FFF74CFC49
:10164C00386108E0FFF748FC02463B69D31A022BCD
:10165C0001D903235AE10D4B5B6A03F00203002B03
:10166C00F0D0012000F09AFA1CE00A4B00221A601C
:10167C00FFF732FC38610FE0FFF72EFC02463B69A6
:10168C00D31A022B08D9032340E100BF00100240FB
:10169C0000004242800442429E4B5B6A03F002030C
:1016AC00002BE9D17B681B6803F00403002B00F0CE
:1016BC00A6800023FB75974BDB6903F08053002B4E
:1016CC000DD1944BDB69934A43F08053D361914B1A
:1016DC00DB6903F08053BB60BB680123FB758E4B49
:1016EC001B6803F48073002B18D18B4B1B688A4A40
:1016FC0043F480731360FFF7EFFB386108E0FFF7EA
:10170C00EBFB02463B69D31A642B01D90323FDE0A2
:10171C00814B1B6803F48073002BF0D07B68DB6873
:10172C00012B06D17B4B1B6A7A4A43F001031362EF
:10173C002DE07B68DB68002B0CD1764B1B6A754A5D
:10174C0023F001031362734B1B6A724A23F00403E8
:10175C0013621CE07B68DB68052B0CD16D4B1B6A9C
:10176C006C4A43F0040313626A4B1B6A694A43F0E8
:10177C00010313620BE0674B1B6A664A23F00103FB
:10178C001362644B1B6A634A23F0040313627B6885
:10179C00DB68002B15D0FFF79FFB38610AE0FFF7E1
:1017AC009BFB02463B69D31A41F28832934201D922
:1017BC000323ABE0574B1B6A03F00203002BEED064
:1017CC0014E0FFF789FB38610AE0FFF785FB02465E
:1017DC003B69D31A41F28832934201D9032395E035
:1017EC004C4B1B6A03F00203002BEED1FB7D012B4B
:1017FC0005D1484BDB69474A23F08053D3617B68A2
:10180C00DB69002B00F08180424B5B6803F00C031A
:10181C00082B61D07B68DB69022B46D13F4B002241
:10182C001A60FFF759FB386108E0FFF755FB0246D9
:10183C003B69D31A022B01D9032367E0354B1B6894
:10184C0003F00073002BF0D17B681B6AB3F5803F6B
:10185C0008D1304B5B6823F400327B689B682D49C0
:10186C0013434B602B4B5B6823F474127B68196A2F
:10187C007B685B6A0B43274913434B60274B012260
:10188C001A60FFF729FB386108E0FFF725FB0246D9
:10189C003B69D31A022B01D9032337E01D4B1B687C
:1018AC0003F00073002BF0D02FE01C4B00221A60C9
:1018BC00FFF712FB386108E0FFF70EFB02463B69AD
:1018CC00D31A022B01D9032320E0124B1B6803F01F
:1018DC000073002BF0D118E07B68DB69012B01D180
:1018EC00012313E00B4B5B68FB60FB6803F4803255
:1018FC007B681B6A9A4206D1FB6803F470127B6802
:10190C005B6A9A4201D0012300E000231846183785
:10191C00BD4680BD00100240007000406000424295
:10192C0080B584B000AF786039607B68002B01D142
:10193C000123D0E06A4B1B6803F007033A689A4214
:10194C0010D9674B1B6823F0070265493B681343AA
:10195C000B60634B1B6803F007033A689A4201D093
:10196C000123B8E07B681B6803F00203002B20D036
:10197C007B681B6803F00403002B05D0594B5B6894
:10198C00584A43F4E06353607B681B6803F0080318
:10199C00002B05D0534B5B68524A43F460535360A1
:1019AC00504B5B6823F0F0027B689B684D491343F6
:1019BC004B607B681B6803F00103002B40D07B68F5
:1019CC005B68012B07D1474B1B6803F40033002BDA
:1019DC0015D101237FE07B685B68022B07D1414B5B
:1019EC001B6803F00073002B09D1012373E03D4BFE
:1019FC001B6803F00203002B01D101236BE0394B70
:101A0C005B6823F003027B685B68364913434B60C9
:101A1C00FFF762FAF8600AE0FFF75EFA0246FB682D
:101A2C00D31A41F28832934201D9032353E02D4B50
:101A3C005B6803F00C027B685B689B009A42EBD1FD
:101A4C00274B1B6803F007033A689A4210D2244BC9
:101A5C001B6823F0070222493B6813430B60204BA1
:101A6C001B6803F007033A689A4201D0012332E065
:101A7C007B681B6803F00403002B08D0194B5B68D0
:101A8C0023F4E0627B68DB68164913434B607B6888
:101A9C001B6803F00803002B09D0124B5B6823F47E
:101AAC0060527B681B69DB000E4913434B6000F0EE
:101ABC0021F802460B4B5B681B0903F00F030A4924
:101ACC00CB5C22FA03F3094A1360094B1B681846D6
:101ADC00FFF7C0F9002318461037BD4680BD00BF84
:101AEC000020024000100240541C00080C00002092
:101AFC001000002080B487B000AF0023FB600023EF
:101B0C00BB6000237B6100237B6000233B611E4B89
:101B1C005B68FB60FB6803F00C03042B02D0082B02
:101B2C0003D027E0194B3B6127E0FB689B0C03F0CB
:101B3C000F03174AD35C7B60FB6803F48033002BE4
:101B4C0010D0114B5B685B0C03F00103114AD35CA2
:101B5C00BB607B680D4A02FB03F2BB68B2FBF3F37C
:101B6C007B6104E07B680C4A02FB03F37B617B69BD
:101B7C003B6102E0054B3B6100BF3B6918461C37DB
:101B8C00BD4680BC704700BF0010024000127A00B6
:101B9C00641C0008741C000800093D0080B485B06A
:101BAC0000AF78600A4B1B680A4AA2FB03235B0A4E
:101BBC007A6802FB03F3FB6000BFFB685A1EFA60F5
:101BCC00002BF9D100BF00BF1437BD4680BC704755
:101BDC000C000020D34D621070B500260C4D0D4C3E
:101BEC00641BA410A64209D100F022F800260A4D6D
:101BFC000A4C641BA410A64205D170BD55F8043BD9
:101C0C0098470136EEE755F8043B98470136F2E762
:101C1C00781C0008781C0008781C00087C1C000844
:101C2C0003460244934200D1704703F8011BF9E7C5
:101C3C00F8B500BFF8BC08BC9E467047F8B500BFAD
:081C4C00F8BC08BC9E4670477D
:101C54000000000000000000010203040607080958
:101C640002030405060708090A0B0C0D0E0F1010D9
:041C74000102000069
:041C7800310100082E
:041C7C000D0100084E
:101C800002020000050000000300000000127A00BC
:081C900010000000010000003B
:0400000508000DE9F9
:00000001FF
